:020000040800F2
:10000000600400209D0100087710000823100008FC
:1000100075100008B50300089D11000800000000DD
:100020000000000000000000000000009B1000081D
:10003000B703000800000000991000089D10000898
:10004000B7010008B7010008B7010008B7010008B0
:10005000B7010008B7010008B7010008B7010008A0
:10006000B7010008B7010008B7010008B701000890
:10007000B7010008B7010008B7010008B701000880
:10008000B7010008B701000885020008B7010008A1
:10009000B7010008B7010008B7010008B701000860
:1000A000B7010008B7010008B7010008B701000850
:1000B000B7010008B7010008B7010008B701000840
:1000C000B7010008B7010008B7010008B701000830
:1000D000B7010008B7010008B7010008B701000820
:1000E000B7010008B7010008B7010008B701000810
:1000F000B7010008B7010008B7010008B701000800
:10010000B7010008B7010008B7010008B7010008EF
:10011000B7010008B7010008B7010008B7010008DF
:10012000B7010008B7010008B7010008B7010008CF
:10013000B7010008B7010008B7010008B7010008BF
:10014000B7010008B7010008B7010008B7010008AF
:10015000B7010008B7010008B7010008B70100089F
:10016000B7010008B7010008B7010008B70100088F
:10017000B7010008B7010008B7010008000000003F
:10018000B7010008B7010008DFF80CD000F068F8EC
:1001900000480047BD110008600400200648804761
:1001A00006480047FEE7FEE7FEE7FEE7FEE7FEE75C
:1001B000FEE7FEE7FEE7FEE74911000889010008B7
:1001C0002DE9F05F0546002092469B46884606468C
:1001D000814640241BE0284641464746224600F01F
:1001E0002FF853465A46C01A914110D3114618466B
:1001F000224600F016F82D1A67EB01084F462246FA
:100200000120002100F00DF817EB00094E41201EDF
:10021000A4F10104DFDC484631462A464346BDE8E6
:10022000F09F202A04DB203A00FA02F100207047F8
:100230009140C2F1200320FA03F319439040704724
:10024000202A04DB203A21FA02F00021704721FA2B
:1002500002F3D040C2F12002914008431946704792
:10026000064C074D06E0E06840F0010394E8070003
:1002700098471034AC42F6D3FFF78AFF0C120008FF
:100280002C120008014800F053B9000014000020AF
:10029000454910B54A6822F440324A604A684368CA
:1002A0001A434A6001684A6822F480724A60016811
:1002B0004A68036942EA03224A6001684A6822F0F8
:1002C00040724A6001684A6883681A434A6001685C
:1002D0008A6822F400628A6001688A68C3681A43E7
:1002E0008A60816A6FF07062D14201688A6822F088
:1002F00070628A6001688A680CD0836A1A438A60D7
:1003000001688A6822F040528A6001688A68C36A7C
:100310001A4301E022F040528A6001688A6822F0A4
:1003200002028A6001688A68836942EA43028A603D
:10033000016A002901684A680FD042F400624A60ED
:1003400001684A6822F460424A6001684A68174CB2
:10035000436A04EB43331A4301E022F400624A602B
:100360000168CA6A22F47002CA620168CA6A838B91
:100370000F4C04EB03531A43CA6201688A6822F4E3
:1003800000728A6001688A68036B42EA43228A60CD
:1003900001688A6822F480628A6001688A6840691C
:1003A00042EA8020886010BD0023014000E0FFFF8A
:1003B0000000F0FFFEE770477047000078B50024AA
:1003C000009490F83C20012A19D0012280F83C20AA
:1003D0000A6807230568092A13D9EE680A3A02EB6E
:1003E000420293409E43EE600B788A680A3B03EB1F
:1003F00043039A400368DD682A43DA6010E0022074
:1004000078BD2E6902EB420293409E432E610B7829
:100410008A6803EB43039A4003681D692A431A6103
:100420004A681F23072A13D205686E6B521E02EB1F
:10043000820293409E436E630B790A885B1E92B2E0
:1004400003EB83039A4003685D6B2A435A6327E0FA
:1004500005680D2A12D22E6BD21F02EB8202934046
:100460009E432E630B790A88DB1F92B203EB830352
:100470009A4003681D6B2A431A6311E0EE6A0D3A35
:1004800002EB820293409E43EE620B790A880D3B99
:1004900092B203EB83039A400368DD6A2A43DA626F
:1004A000164B0568144A9D4206D10D68122D03D1E2
:1004B000556845F48005556005689D4218D10B6864
:1004C000102B01D0112B13D1536843F40003536058
:1004D000096810290CD10A490A4A0968B1FBF2F1EE
:1004E00001EB8101490000E0491E00910029FBD188
:1004F00080F83C40002078BD0023014000200140EE
:100500001000002040420F0010B5054A0168126833
:10051000914203D100F009F80249088010BD0000A3
:10052000140000200000002070470068C06C704775
:1005300070B50446006801684268C1F34001C2F327
:10054000401251B34AB3216CC90603D4216C41F463
:1005500000712164816811F0405F17D1A169A9B9C8
:10056000C16A11F4700F02D0816849050ED4416848
:1005700021F020014160206C20F480702064206C08
:10058000C00403D4206C40F0010020642046FFF733
:10059000BBFF21686FF012000860206801684268A4
:1005A000C1F38001C2F3C01289B382B3216CC906C2
:1005B00003D4216C41F400512164816811F4401F7F
:1005C0001ED1816B11F4401F02D08168490517D4F8
:1005D0004168490514D4816811F0405F10D1A169C8
:1005E00071B9416821F080014160206C20F4805095
:1005F0002064206CC00503D4206C40F0010020640E
:100600002046FFF7D9FE21686FF00C0008602068D3
:100610000168426811F0010FC2F380120ED06AB176
:100620000068C0070AD0206C40F480302064204667
:1006300000F046F821686FF001000860206801684A
:100640004268C1F34011C2F3806200290DD0002A34
:100650000BD0616C41F0020161646FF02005056010
:100660002046FFF761FF2068056070BD70B504008B
:100670004FF0000503D0206C002610B107E00120E8
:1006800070BD666484F83C60204600F01BF8206C66
:10069000C00610D4206C20F4885040F00200206482
:1006A0002046FFF7F5FD6664206C20F0020040F064
:1006B0000100206400E0012584F83C60284670BDFC
:1006C0007047000000B50068104987B088421AD111
:1006D0000F480021026842F480720260006800F452
:1006E00080700590012000900320CDE9010169464A
:1006F000084800F075F800221146122000F0DEF9DB
:10070000122000F0CFF907B000BD0000002001402A
:10071000443802400000024018B50021009190F8D2
:100720003C20012A07D0012280F83C20026893680F
:10073000DB0702D011E0022018BD936843F00103EB
:100740009360224A224B1268B2FBF3F202EB4202A0
:1007500000E0521E0092002AFBD102689368DB077A
:1007600032D0036C40F20164A34343F4807303640A
:1007700053685B0505D5036C23F4005343F48053A1
:100780000364036CDB0404D5436C23F00603436469
:1007900000E0416480F83C100E4B6FF022011160C4
:1007A00001684A680C4C22434A6059680068C906CF
:1007B00002D00A49884207D1816811F0405F03D115
:1007C000816841F080418160002018BD1000002048
:1007D00040420F000023014020000004002001409F
:1007E0002DE9F84FDFF87CB100224FF001084FF0FF
:1007F000030A4FF00F090BF1040E00BF0B6808FA53
:1008000002F42340A3426ED14D68022D01D0122D77
:100810000ED1D50800EB850CDCF820505607F70EFA
:1008200009FA07F6B5430E69BE402E43CCF82060A6
:10083000066855000F790AFA05FC07F0030726EA57
:100840000C06AF40374307604E68012E05D0022EDC
:1008500003D0112E01D0122E0ED18668CF6826EA61
:100860000C06AF40374387604668A6430C79C4F353
:100870000014944034434460C6688C6826EA0C0631
:10088000AC403443C4604C68E40065D5364C256800
:1008900045F480452560246822F0030504F4804473
:1008A0000094324C2E19D6F8084895072F0F09FAF4
:1008B00007F5AC432E4DA84201D1002524E02D4D73
:1008C000A84201D101251FE02B4DA84201D10225EC
:1008D0001AE02A4DA84201D1032515E0284DA8426F
:1008E00002D1042510E037E0264DA84201D10525AC
:1008F0000AE0254DA84201D1062505E0234DA84276
:1009000001D1072500E00825BD402543C6F8085859
:10091000DBF800405D464E689C43F60300D51C435F
:100920002C60DEF8004075464E689C43B60300D547
:100930001C432C600B4D08352C684E689C43F60216
:1009400000D51C432C60074D0C352C684E689C4329
:10095000B60200D51C432C60521C102AFFF44EAF87
:10096000BDE8F88F003C01404438024000300140AF
:10097000000002400004024000080240000C024057
:10098000001002400014024000180240001C024007
:100990000148806870470000040000200248816818
:1009A0000278114481607047040000200B4810B5A4
:1009B000016841F400710160016841F480610160E7
:1009C000016841F480710160032000F097F8002075
:1009D00000F006F800F024F8002010BD003C0240B2
:1009E00070B50D4D04464FF47A712878B1FBF0F0E4
:1009F0000A490968B1FBF0F000F0FBFA48B9102C85
:100A000007D200222146501E00F058F800206C60EA
:100A100070BD012070BD0000040000201000002007
:100A20001F4808B5016841F480410160006800F486
:100A3000804000901A48001F016841F08051016019
:100A4000006800F080500090032000F057F800226A
:100A500011466FF00B0000F031F8002211466FF0E4
:100A60000A0000F02BF8002211466FF0090000F098
:100A700025F800221146501F00F020F800221146F0
:100A8000101F00F01BF800221146901E00F016F80F
:100A90000022BDE808401146501E00F00FB80000CB
:100AA0004438024000F01F020121914040098000BB
:100AB00000F1E020C0F8001170470000F0B40E4BC8
:100AC0001B680C46C3F30223C3F10705042D00D9AC
:100AD0000425191D072901D2002300E0DB1E012691
:100AE00006FA05F1491E214099409E40761E1640A7
:100AF0003143F0BC00F0C0BA0CED00E0064900F054
:100B0000070208684FF6FF03184040EA0220034A34
:100B100010430860704700000CED00E00000FA058B
:100B20002DE9F0470E46050065D0DFF81481D8F8AE
:100B30000000F7B200F00F00B04207D288F8007052
:100B4000D8F8000000F00F00B04254D128683D4CA6
:100B5000810712D5400703D5206840F4E05020609B
:100B60002878000703D5206840F4604020602068A2
:100B7000A96820F0F000084320602878C0072DD035
:100B8000304968680839012812D0022813D0032898
:100B900011D00968890700292DDA216821F00301A5
:100BA00001432160FFF7F4FE814641F2883A0EE0EE
:100BB00009688903EFE709688901ECE7FFF7E8FEB8
:100BC000A0EB0901514502D90320BDE8F087206858
:100BD000696800F00C00B0EB810FEFD1D8F800107D
:100BE000404601F00F01B14207D90770006800F0DC
:100BF0000F00B04201D00120E7E72878400705D573
:100C00002068E96820F4E050084320602878000755
:100C100006D52068296920F4604040EAC1002060C0
:100C200000F01CF82168084AC1F30311515CC84068
:100C3000064908600020FFF7D3FE0020C5E700004A
:100C4000003C024008380240FC110008100000205F
:100C5000014800687047000010000020154810B5DA
:100C6000006810F00C02144813D04110042A0FD071
:100C7000082A0ED10F4C241F2268236802F03F027D
:100C80005B0207D52068C0F38810A0FB010106E0D5
:100C9000084610BD2168C1F38811A1FB00010023A3
:100CA000FFF78EFA2168C1F30141491C4900B0FBEE
:100CB000F1F010BD083802400024F4002DE9F84F8F
:100CC000050076D02878DFF8F8B2BE4CC00749D0CE
:100CD000DBF800105846C1F38101012908D00068F3
:100CE000C0F3810002280AD1201D0068400206D509
:100CF0002068800336D568680028E2D032E0686852
:100D0000B0F5803F10D0B0F5A02F206810D020F4AF
:100D100080302060206820F4802020606868A0B1C6
:100D2000FFF736FE06460CE0206840F48030F4E71A
:100D300040F480202060F7E7FFF72AFE801B64283C
:100D400073D820688003F7D50CE0FFF721FE064634
:100D500005E000BFFFF71CFE801B6428F0D8206868
:100D60008003F7D42878DFF8608280074FF000090D
:100D70003ED5DBF80010584611F00C0F09D0006882
:100D8000C0F3810002280BD18D48001F006840028B
:100D900006D42068800715D5E868012809D111E03C
:100DA000E868B8B10120C8F80000FFF7F1FD064679
:100DB00005E002E1FFF7ECFD801B0228C0D82068A7
:100DC0008007F7D52068296920F0F80040EAC100C3
:100DD00020600DE0C8F80090FFF7DAFD064604E059
:100DE000FFF7D6FD801B02281FD820688007F7D4A4
:100DF0002878000722D5724E744869696C3671B143
:100E000001210160FFF7C4FD074604E0FFF7C0FDC4
:100E1000C01B022809D830688007F7D50EE0C0F85B
:100E20000090FFF7B5FD074605E083E0FFF7B0FD52
:100E3000C01B02287ED830688007F7D42878400786
:100E400068D5DFF87CA100270AF1380ADAF800003B
:100E5000C0000BD4DAF8001041F08051CAF800103D
:100E6000DAF80000012700F080500090584E3068FA
:100E7000C00510D4306840F480703060FFF788FD02
:100E8000009005E0FFF784FD0099401A022851D830
:100E90003068C005F6D54A4EA868683601280FD0DC
:100EA0000528306810D020F001003060306820F054
:100EB00004003060A868B8B1FFF76AFD00900FE049
:100EC000306840F00100F4E740F004003060F7E7DC
:100ED000FFF75EFD0099411A41F28830814264D8E3
:100EE00030688007F4D50EE0FFF752FD009007E070
:100EF000FFF74EFD0099411A41F28830814254D8E3
:100F000030688007F4D42FB1DAF8001021F0805156
:100F1000CAF80010A869C0B3DBF80010C1F3810162
:100F200002294AD00228484607D0C8F86000FFF7D7
:100F30002FFD00E039E005463AE04746C8F860007A
:100F4000FFF726FD064604E0FFF722FD801B02287E
:100F50002BD820688001F7D4D5E907010843A96A96
:100F60001C4A490802EB01416A6A41EA82110843BE
:100F700095F82C1040EA01611148001F0160012022
:100F80003866FFF705FD054605E014E0FFF700FDB4
:100F9000401B022809D820688001F7D50BE000BF6C
:100FA000FFF7F6FC401B022802D90320BDE8F88FAA
:100FB00020688001F4D40020F8E70120F6E7000063
:100FC000083802400038024000004742800E474285
:100FD000007000400000FFFF4FF0E0210428086986
:100FE00003D020F004000861704740F00400FAE7E5
:100FF000704710B5401EB0F1807F01D3012010BDB5
:101000004FF0E02460610F21601700F035F80020F8
:10101000A06107202061002010BD10B5FFF7E8FF98
:1010200010BDFEE77FB511480F490024C0E9001448
:1010300084600125046185610D490462C0E90A14D8
:10104000C460C56145610463FFF710FB00B1FEE7B2
:1010500006200094CDE9015069460448FFF7AEF937
:10106000002800D0FEE77FBD0020014014000020D2
:101070000100000FFEE770470907090E002806DA95
:1010800000F00F0000F1E02080F8141D704700F11F
:10109000E02080F8001470477047704710B5FFF7E4
:1010A0007DFCBDE81040FFF7B8BF000030B5244814
:1010B00093B00025016841F080510160006800F0A4
:1010C000805011901F48016841F480410160006820
:1010D000022400F48040119001200090000401904F
:1010E0008001CDE90640082008904FF4A870CDE9B2
:1010F000090404200B906846FFF7E0FD00B1FEE70D
:101100000CA90F2081E831004FF4A0500F901090EF
:1011100005210CA8FFF704FD00B1FEE7FFF798FDDD
:101120004FF47A71B0FBF1F0FFF763FF0420FFF793
:1011300053FF00221146501EFFF7C0FC13B030BD14
:1011400040380240007000401048016841F47001CE
:1011500001600F48016841F0010101600C4A002163
:101160000832116002680B4B1A400260031D0A4AE4
:101170001A60026822F48022026005480C30016087
:1011800002495806803908607047000088ED00E089
:1011900000380240FFFFF6FE10300024FEE702E0B8
:1011A00008C8121F08C1002AFAD1704770470020F2
:1011B00001E001C1121F002AFBD1704708B5FFF7FB
:1011C000F5FBFFF773FF0B48016841F080010160F8
:1011D000016801F080010091016841F001010160A6
:1011E000006800F001000090FFF71CFF0248FFF7C5
:1011F00093FAFEE73038024014000020000000009F
:101200000000000001020304060708092C12000870
:1012100000000020140000009E1100084012000889
:10122000140000204C040000AE1100080000000073
:101230000100000010000000000000000024F40085
:040000050800018965
:00000001FF
